:100000000C94DA000C9402010C9402010C9402018D
:100010000C9402010C9402010C9402010C94020154
:100020000C9402010C9402010C9402010C94020144
:100030000C9402010C9402010C9402010C94020134
:100040000C9488050C9402010C94F8050C94D205CC
:100050000C9402010C9402010C9402010C94020114
:100060000C9402010C94020100407A10F35A00A093
:10007000724E18090010A5D4E80000E87648170071
:1000800000E40B54020000CA9A3B000000E1F505B1
:10009000000080969800000040420F000000A086FB
:1000A00001000000102700000000E803000000002D
:1000B0006400000000000A000000000001000000D1
:1000C00000002C76D888DC674F0823DFC1DFAE59EB
:1000D000E1B1B796E5E3E453C63AE651997696E87E
:1000E000E6C28426EB898C9B62ED407C6FFCEFBC02
:1000F0009C9F40F2BAA56FA5F490055A2AF75C932D
:100100006B6CF9676DC11BFCE0E40D47FEF520E662
:10011000B500D0ED902E0300943577050080841E45
:10012000080000204E0A000000C80C333333330FA0
:10013000986E12831141EF8D2114893BE65516CF3D
:10014000FEE6DB18D1844B381BF77C1D901DA4BB49
:10015000E424203284725E228100C9F124ECA1E5FE
:100160003D2700000000240027002A0000000000B6
:10017000250028002B0004040404040404040202E3
:100180000202020203030303030301020408102016
:100190004080010204081020010204081020000021
:1001A0000008000201000003040700000000000036
:1001B00000002A0611241FBECFEFD8E0DEBFCDBF5E
:1001C00022E0AAE6B1E001C01D92AC32B207E1F72D
:1001D00011E0A0E0B1E0ECEBFBE102C005900D9274
:1001E000AA36B107D9F710E0CAEDD0E004C02197D4
:1001F000FE010E94E40BC93DD107C9F70E947406B5
:100200000C94DC0D0C94000090E0FC01E256FE4FD3
:100210002491FC01E657FE4F3491FC01EA58FE4F51
:10022000E491EE23C9F0222339F0233001F1A8F440
:10023000213019F1223029F1F0E0EE0FFF1FE459CF
:10024000FE4FA591B4918FB7F894EC91611126C03F
:1002500030953E233C938FBF08952730A9F0283076
:10026000C9F0243049F7809180008F7D03C08091D0
:1002700080008F7780938000DFCF84B58F7784BD37
:10028000DBCF84B58F7DFBCF8091B0008F778093DB
:10029000B000D2CF8091B0008F7DF9CF3E2BDACF66
:1002A000CF93DF9390E0FC01E657FE4F24918A58EC
:1002B0009E4FFC0184918823D1F090E0880F991F14
:1002C000FC01EE59FE4FA591B491FC01E459FE4F9B
:1002D000C591D49161110EC09FB7F8948C91E22F13
:1002E000E0958E238C932881E223E8839FBFDF91E2
:1002F000CF9108958FB7F894EC91E22BEC938FBFD8
:10030000F6CF3FB7F89480916F0190917001A09162
:100310007101B091720126B5A89B05C02F3F19F05D
:100320000196A11DB11D3FBFBA2FA92F982F882775
:10033000BC01CD01620F711D811D911D42E0660F50
:10034000771F881F991F4A95D1F708958F929F9222
:10035000AF92BF92CF92DF92EF92FF924B015C017E
:100360000E9481016B017C010E9481016C197D0951
:100370008E099F09683E734081059105A8F321E02D
:10038000821A9108A108B10888EEC80E83E0D81E31
:10039000E11CF11C81149104A104B10429F7FF9020
:1003A000EF90DF90CF90BF90AF909F908F90089587
:1003B000AF92BF92CF92DF92EF92FF920F931F9373
:1003C000CF93DF936C017B018B01040F151FEB01B1
:1003D0005E01AE18BF08C017D10759F06991D60168
:1003E000ED91FC910190F081E02DC6010995892BDA
:1003F00079F7C501DF91CF911F910F91FF90EF9099
:10040000DF90CF90BF90AF900895FC01448155815B
:100410006081718180E192E00C94D801FC01538DE0
:10042000448D252F30E0842F90E0821B930B5417CE
:1004300010F0CF96089501970895FC01918D828D5B
:10044000981761F0A28DAE0FBF2FB11D5D968C91F4
:10045000928D9F5F9F73928F90E008958FEF9FEF33
:100460000895FC01918D828D981731F0828DE80FEF
:10047000F11D858D90E008958FEF9FEF0895FC01A9
:10048000918D228D892F90E0805C9F4F821B910976
:100490008F739927089583E791E00E943F0221E03E
:1004A000892B09F420E0822F089580E090E0892BC9
:1004B00029F00E944B0281110C9400000895FC0168
:1004C000A48DA80FB92FB11DA35ABF4F2C91848DB5
:1004D00090E001968F739927848FA689B7892C9312
:1004E000A089B1898C91837080648C93938D848D65
:1004F000981306C00288F389E02D80818F7D808368
:100500000895EF92FF920F931F93CF93DF93EC0127
:1005100081E0888F9B8D8C8D98131AC0E889F989AA
:10052000808185FF15C09FB7F894EE89FF896083AD
:10053000E889F98980818370806480839FBF81E02E
:1005400090E0DF91CF911F910F91FF90EF90089570
:10055000F62E0B8D10E00F5F1F4F0F731127E02E4B
:100560008C8D8E110CC00FB607FCFACFE889F98983
:10057000808185FFF5CFCE010E945F02F1CFEB8D28
:10058000EC0FFD2FF11DE35AFF4FF0829FB7F89457
:100590000B8FEA89FB8980818062CFCFCF93DF9375
:1005A000EC01888D8823B9F0AA89BB89E889F9898B
:1005B0008C9185FD03C0808186FD0DC00FB607FCC0
:1005C000F7CF8C9185FFF2CF808185FFEDCFCE01F3
:1005D0000E945F02E9CFDF91CF910895089590E0E6
:1005E00080E00895EF92FF920F931F93CF9392EFC5
:1005F000980F8E3008F0892F8770C82FC06410E0E4
:1006000000E08EE1E816F104D8F4C0937C008091FC
:100610007A00806480937A0080917A0086FDFCCF16
:100620008091780090917900080F191F61E070E0C7
:1006300080E090E00E94A6018FEFE81AF80AE1CF6F
:10064000C8016EE170E00E94AE0BCB01CF911F910B
:100650000F91FF90EF900895FB0101900020E9F7C2
:100660003197AF01461B570BDC01ED91FC910280E5
:10067000F381E02D0994CF93DF93EC0160E08E814C
:100680000E94040161E08E810E94040160E08E817D
:100690000E9404018BE891E00197F1F7DF91CF917F
:1006A0000895CF92DF92EF92FF920F931F93CF9313
:1006B000DF936C017C0187E0E80EF11CD0E0C0E024
:1006C000062F10E0B8010C2E02C0759567950A94AC
:1006D000E2F76170F70181917F010E940401219688
:1006E000C430D10579F7C601DF91CF911F910F91E9
:1006F000FF90EF90DF90CF900C943B03CF92DF926E
:10070000EF92FF920F931F93CF93DF93EC01F62E9E
:10071000642F8C810E9404018D818F3F19F060E06D
:100720000E9404010F2D10E08F8584FF25C06E010B
:1007300087E0C80ED11CF12CE12CB8010E2C02C0B0
:10074000759567950A94E2F76170F60181916F01E2
:100750000E940401FFEFEF1AFF0A88E0E816F10497
:1007600061F7CE01DF91CF911F910F91FF90EF9034
:10077000DF90CF900C943B03B80184E075956795AA
:100780008A95E1F7CE010E9451036F2DCE01DF91D2
:10079000CF911F910F91FF90EF90DF90CF900C942D
:1007A000510340E0682F80E192E00C947E0381E0E9
:1007B0000E94D1038BE39FE10197F1F70895CF9356
:1007C000DF93823029F490911F02986090931F026A
:1007D000809323021092240280E48093250280E11A
:1007E0008093260280E58093270261E080911402C5
:1007F0000E945001809115028F3F19F061E00E9424
:10080000500161E0809116020E945001C0E1D2E0E7
:100810009E012051324080911F0284FD0BC084E074
:1008200090E021962817390744F461E08E810E94F8
:100830005001EECF88E090E0F4CF8BE39DE001978C
:10084000F1F760E0809114020E94040160E0809161
:1008500016020E940401809115028F3F19F060E09A
:100860000E94040180911F0284FD34C063E080E196
:1008700092E00E945103CBE4D6E4CE010197F1F758
:1008800063E080E192E00E9451032197F1F763E079
:1008900080E192E00E94510383E592E00197F1F735
:1008A00062E080E192E00E94510380911F02806229
:1008B0000E94D10384E0809320028CE00E94D10347
:1008C0000E94D70382E08093210286E0DF91CF91DE
:1008D0000C94D10380620E94D1038BE496E40197CB
:1008E000F1F780911F0280620E94D10383E592E0BC
:1008F0000197F1F780911F0280620E94D103D5CF4A
:1009000090912302691710F06FEF690FE62FF0E066
:10091000E05FFD4F9489890F80680C94D10341E01A
:100920000E947E0381E090E008950F931F93CF9380
:10093000DF93EC0188819981009759F02A813B81EE
:100940002617370730F081E0DF91CF911F910F918B
:1009500008958B016F5F7F4F0E940F0D009759F034
:10096000998388831B830A832C813D81232B59F72C
:10097000FC011082E8CF80E0E7CFCF93DF93EC015A
:1009800088819981009711F00E94860C1982188243
:100990001D821C821B821A82DF91CF910895EF92F3
:1009A000FF920F931F93CF93DF93EC017B0119828A
:1009B00018821B821A821D821C82FB01019000207A
:1009C000E9F731978F01061B170BB8010E949504B8
:1009D000811109C0CE01DF91CF911F910F91FF903E
:1009E000EF900C94BD041D830C83B701888199811D
:1009F000DF91CF911F910F91FF90EF900C94D50D47
:100A0000CF92DF92EF92FF920F931F93CF93DF93DA
:100A1000CDB7DEB7A1970FB6F894DEBF0FBECDBF3E
:100A20007C01CB01BA01F70111821082138212827C
:100A3000158214828E010F5F1F4F22E044E00E9456
:100A400027086C01009771F0FC0101900020E9F784
:100A500031978F01081B190BB801C7010E9495043B
:100A6000811112C0C7010E94BD04A1960FB6F8946F
:100A7000DEBF0FBECDBFDF91CF911F910F91FF90D1
:100A8000EF90DF90CF900895F70115830483B601AE
:100A9000808191810E94D50DE8CFEF92FF920F9354
:100AA0001F93CF93DF93EC01FB01E080F180E11411
:100AB000F10411F10481158101151105A9F08C8152
:100AC0009D81080F191FB801CE010E94950488234B
:100AD00099F0288139818C819D81B701820F931F04
:100AE0000E94D50D1D830C83CE01DF91CF911F9104
:100AF0000F91FF90EF900895CE010E94BD04F4CFB6
:100B0000FC0180819181009711F00C94860C08956E
:100B10001F920F920FB60F9211242F933F938F9332
:100B20009F93AF93BF9380916B0190916C01A091C3
:100B30006D01B0916E0130916A0123E0230F2D37D2
:100B400058F50196A11DB11D20936A0180936B0198
:100B500090936C01A0936D01B0936E0180916F0131
:100B600090917001A0917101B09172010196A11D47
:100B7000B11D80936F0190937001A0937101B093A8
:100B80007201BF91AF919F918F913F912F910F90E3
:100B90000FBE0F901F90189526E8230F0296A11DF7
:100BA000B11DD2CF1F920F920FB60F9211242F9327
:100BB0003F934F935F936F937F938F939F93AF93E5
:100BC000BF93EF93FF9383E791E00E945F02FF9151
:100BD000EF91BF91AF919F918F917F916F915F91B5
:100BE0004F913F912F910F900FBE0F901F9018952E
:100BF0001F920F920FB60F9211242F938F939F93F2
:100C0000EF93FF93E0918301F09184018081E09163
:100C10008901F0918A0182FD1BC0908180918C0135
:100C20008F5F8F7320918D01821741F0E0918C01CD
:100C3000F0E0ED58FE4F958F80938C01FF91EF917E
:100C40009F918F912F910F900FBE0F901F9018952D
:100C50008081F4CFE3E7F1E01382128288EE93E023
:100C6000A0E0B0E084839583A683B7838AE091E017
:100C70009183808385EC90E09587848784EC90E075
:100C80009787868780EC90E0918B808B81EC90E059
:100C9000938B828B82EC90E0958B848B86EC90E03A
:100CA000978B868B118E128E138E148EE0E1F2E0FC
:100CB000138212828CE191E0918380838CE08483A3
:100CC0008FEF85838BE086838AE0878389E0808746
:100CD00088E0818787E082871386148615861686CA
:100CE000178681E00C94DF03CF93DF93CDB7DEB797
:100CF000AB970FB6F894DEBF0FBECDBF789484B526
:100D0000826084BD84B5816084BD85B5826085BD07
:100D100085B5816085BD80916E00816080936E0095
:100D20001092810080918100826080938100809187
:100D30008100816080938100809180008160809338
:100D400080008091B10084608093B1008091B000F8
:100D500081608093B00080917A00846080937A00F3
:100D600080917A00826080937A0080917A0081601D
:100D700080937A0080917A00806880937A00109244
:100D8000C10060E08EE00E94500160E08EE00E94B1
:100D9000500160E08EE00E94500182E00E94DF037B
:100DA00060E080E00E94800464E271E080E192E013
:100DB0000E942C0361E082E00E94800464E371E001
:100DC00080E192E00E942C0368EE73E080E090E006
:100DD0000E94A6010E94D70360E082E00E94800486
:100DE00060E471E080E192E00E942C0361E081E028
:100DF0000E9480046DE471E080E192E00E942C0387
:100E000068EE73E080E090E00E94A6010E94D703A4
:100E1000E0918301F091840182E08083E0917F0181
:100E2000F09180011082E0918101F09182018FECBC
:100E3000808310928B01E0918701F091880186E018
:100E40008083E0918501F0918601808180618083BB
:100E5000E0918501F0918601808188608083E09136
:100E60008501F0918601808180688083E091850111
:100E7000F091860180818F7D808380E0282E80E044
:100E8000382E8EE090E00E94F2026C018EE090E03D
:100E90000E94F2025C018EE090E00E94F2028C015E
:100EA000F12CE12CC701B6010E947C0A2AE038E24D
:100EB00040EA5BE30E94B90A2CE032E04DEA52E4DA
:100EC0000E94B90A2B013C01B50190E080E00E942C
:100ED0007C0A2AE038E240EA5BE30E94B90A2CE08F
:100EE00032E04DEA52E40E94B90A4B015C01B801BC
:100EF00090E080E00E947C0A2AE038E240EA5BE36E
:100F00000E94B90A2CE032E04DEA52E40E94B90A8C
:100F100068A779A78AA79BA7A701960119A28E01A6
:100F20000F5D1F4FCA01B9012AE030E040E050E0F8
:100F30000E94C20B605DF80162938F01211531059B
:100F40004105510579F7309729F0BF0183E791E01A
:100F50000E942C036DE571E083E791E00E942C0371
:100F600060E080E00E948004B301A201CE010196FE
:100F70000E94000560E671E0CE0182960E94CF04D7
:100F8000BE016F5F7F4FCE0182960E944D050E9489
:100F90000502CE0182960E948005CE0101960E9434
:100FA000800560E088E00E948004B501A401CE01C4
:100FB00001960E94000563E671E0CE0182960E94D0
:100FC000CF04BE016F5F7F4FCE0182960E944D0518
:100FD0000E940502CE0182960E948005CE010196F4
:100FE0000E94800561E085E00E94800448A559A523
:100FF0006AA57BA5CE0101960E94000566E671E018
:10100000CE0182960E94CF04BE016F5F7F4FCE015A
:1010100082960E944D050E940502CE0182960E9492
:101020008005CE0101960E94800564E170E080E0B9
:1010300090E00E94A6012114310409F422CF0E94FD
:101040004B02882309F41DCF0E9400001ACFEF92B3
:101050000F931F93CF93DF93E80134E047FD34E112
:10106000042E000C550B57FF03C0519541955109B3
:10107000E32E022F242FAE010E944508CE01DF91FE
:10108000CF911F910F91EF900895A9E0B0E0EBE4AC
:10109000F8E00C947D0B6A01F22EB02E102FFBE3CA
:1010A000AF2EA01608F41BE31F5F012F27E0AE014F
:1010B0004F5F5F4F0E94A409BC018981982F9970EE
:1010C000913009F43FC09BE2E1FC04C09E2D917079
:1010D000E0FC3AC05E2D5071E82FE87083FF46C0F7
:1010E00084E0911101C083E0EF2DE81B8F1508F01B
:1010F000E0E0D6018E2F20E2552351F1992329F00B
:10110000D6019C93C60101966C0196012D5F3F4F5D
:10111000E2FE24C08EE4D6018C9391E411969C9358
:10112000119712968C93D9018E2F90E281111BC0DA
:10113000E20FF32FF11D10828EEF9FEF2996ECE066
:101140000C94990B9DE2C6CF90E2C4CF2D938150B1
:101150008111FCCFCE0ED11CE0E0D0CF8EE6D601BF
:101160008C9391E6DBCF9D938150E0CF482F447064
:1011700082FF3DC084E0911101C083E08F1510F41F
:10118000EF2DE81BD6018E2F20E2552309F199237C
:1011900029F0D6019C93C60101966C0196012D5F42
:1011A0003F4FE2FE1BC089E4D6018C938EE411967A
:1011B0008C93119786E412968C93D9018E2F90E22E
:1011C000882309F4B5CF9D938150FACF2D93815098
:1011D0008111FCCFCE0ED11CE0E0D9CF89E6D6013B
:1011E0008C938EE611968C93119786E6E4CF9B0143
:1011F00077FF02C030E020E0A1E0B0E0911102C032
:10120000B0E0A0E0F9013196AE0FBF1F8B2C912CFE
:10121000BB2009F461C05401EFEFAE1ABE0AAA0D5B
:10122000BB1DFA161B0619F014F04F2D4A1B511165
:1012300088C0E3FC59C07601A42FB0E2A1114FC0D1
:10124000C40ED11C992309F45BC040E0D60111966D
:10125000F60190836D01552309F448C0012F060F54
:101260009A81582F507184FF03C0913309F40150C3
:1012700010160CF047C0093008F008E0EEE2FE2E30
:101280005B01A01AB10885019194819491082F3FC8
:10129000320729F4D601FC92F60131966F016217EC
:1012A000730794F1021713077CF5DB01A21BB30B44
:1012B000AA24A394B12CAC0EBD1EAA0DBB1D119681
:1012C0008C9121503109D601119628153905F4F079
:1012D000F60180836D01DBCFB12CA12CA0CFF701EB
:1012E000B1937F01A150AACF9111B0CFD601942F15
:1012F00050E302C05D9391509111FCCFC40ED11CFC
:1013000040E0ACCF01E0BACF80E3DBCF62177307D8
:1013100031F4963388F4953311F4552369F0F601CE
:101320008083FD01842F90E2811108C0A40FB11DBC
:101330001C9290E080E002CF81E3F1CF9193815045
:10134000F3CF911183CF8ACF283008F027E03327DD
:10135000DA01990F311D87FD9160009661057105D5
:1013600039F432602E5F3D9330E32A95E1F708951A
:101370009F3F30F080387105610509F03C5F3C5FAC
:101380003D93913008F08068911DDF93CF931F93B8
:101390000F93FF92EF92192F987F9695E92F9695CC
:1013A0009695E90FFF27EE53FF4F99273327EE2439
:1013B000FF24A701E70105900894079428F4360F4D
:1013C000E71EF81E491F511D660F771F881F991FC2
:1013D0000694A1F70590079428F4E70EF81E491F1C
:1013E000561FC11D770F881F991F661F0694A1F70E
:1013F0000590079428F4F80E491F561FC71FD11DEA
:10140000880F991F661F771F0694A1F70590079410
:1014100020F4490F561FC71FD81F990F661F771F4B
:10142000881F0694A9F784911095177041F0D695FE
:10143000C79557954795F794E7941A95C1F7E8E64D
:10144000F0E068941590159135916591959105900E
:101450007FE27395E118F10A430B560BC90BD009D3
:10146000C0F7E10CF11E431F561FC91FD01D7EF4AB
:10147000703311F48A95E6CFE894015030F0080FEC
:101480000AF40027021708F4202F2395022F7A333D
:1014900028F079E37D932A95E9F710C07D932A958A
:1014A00089F6069497956795379517951794E118DF
:1014B000F10A430B560BC90BD00998F023957E9186
:1014C00073957A3308F070E37C932013B8F77E911C
:1014D00070617D9330F0839571E37D9370E32A957D
:1014E000E1F71124EF90FF900F911F91CF91DF91C1
:1014F000992787FD90950895E89409C097FB3EF4DD
:1015000090958095709561957F4F8F4F9F4F992350
:10151000A9F0F92F96E9BB279395F69587957795CE
:101520006795B795F111F8CFFAF4BB0F11F460FF8E
:101530001BC06F5F7F4F8F4F9F4F16C0882311F0E6
:1015400096E911C0772321F09EE8872F762F05C0FA
:10155000662371F096E8862F70E060E02AF09A9595
:10156000660F771F881FDAF7880F9695879597F98A
:1015700008950E94CC0A0C943D0B0E942F0B38F06A
:101580000E94360B20F0952311F00C94260B0C943E
:101590002C0B11240C94710B0E944E0B70F3959F31
:1015A000C1F3950F50E0551F629FF001729FBB275A
:1015B000F00DB11D639FAA27F00DB11DAA1F649FF6
:1015C0006627B00DA11D661F829F2227B00DA11DA9
:1015D000621F739FB00DA11D621F839FA00D611D2F
:1015E000221F749F3327A00D611D231F849F600D50
:1015F000211D822F762F6A2F11249F5750409AF079
:10160000F1F088234AF0EE0FFF1FBB1F661F771F04
:10161000881F91505040A9F79E3F510580F00C94CF
:10162000260B0C94710B5F3FE4F3983ED4F3869540
:1016300077956795B795F795E7959F5FC1F7FE2B6F
:10164000880F911D9695879597F9089597F99F674B
:1016500080E870E060E008959FEF80EC089500243A
:101660000A941616170618060906089500240A9407
:1016700012161306140605060895092E0394000C8D
:1016800011F4882352F0BB0F40F4BF2B11F460FF1C
:1016900004C06F5F7F4F8F4F9F4F089557FD905845
:1016A000440F551F59F05F3F71F04795880F97FB26
:1016B000991F61F09F3F79F08795089512161306E0
:1016C0001406551FF2CF4695F1DF08C0161617060F
:1016D0001806991FF1CF8695710561050894089544
:1016E000E894BB2766277727CB0197F908952F92B7
:1016F0003F924F925F926F927F928F929F92AF92A2
:10170000BF92CF92DF92EF92FF920F931F93CF93EE
:10171000DF93CDB7DEB7CA1BDB0B0FB6F894DEBF85
:101720000FBECDBF09942A88398848885F846E84AB
:101730007D848C849B84AA84B984C884DF80EE80F5
:10174000FD800C811B81AA81B981CE0FD11D0FB6FE
:10175000F894DEBF0FBECDBFED010895AA1BBB1BE1
:1017600051E107C0AA1FBB1FA617B70710F0A61BA1
:10177000B70B881F991F5A95A9F780959095BC01C2
:10178000CD010895A1E21A2EAA1BBB1BFD010DC0BD
:10179000AA1FBB1FEE1FFF1FA217B307E407F50721
:1017A00020F0A21BB30BE40BF50B661F771F881FFD
:1017B000991F1A9469F760957095809590959B0193
:1017C000AC01BD01CF010895EE0FFF1F0590F4910C
:1017D000E02D09940F931F93CF93DF9382309105EF
:1017E00010F482E090E0E0912A02F0912B0230E0C8
:1017F00020E0B0E0A0E0309799F42115310509F41C
:101800004AC0281B390B24303105D8F58A819B81C9
:101810006115710589F1FB0193838283FE0111C07B
:10182000408151810281138148175907E0F0481720
:10183000590799F4109761F012960C93129713962A
:101840001C933296CF01DF91CF911F910F91089594
:1018500000932A0210932B02F4CF2115310551F089
:101860004217530738F0A901DB019A01BD01DF01DE
:10187000F801C1CFEF01F9CF90932B0280932A0298
:10188000CDCFFE01E20FF31F8193919322503109D6
:1018900039832883D7CF2091280230912902232B26
:1018A00041F42091020130910301309329022093E9
:1018B000280220910001309101012115310541F4E8
:1018C0002DB73EB74091040150910501241B350B03
:1018D000E0912802F0912902E217F307A0F42E1BF1
:1018E0003F0B2817390778F0AC014E5F5F4F241784
:1018F000350748F04E0F5F1F50932902409328028E
:10190000819391939FCFF0E0E0E09CCFCF93DF9362
:101910000097E9F0FC01329713821282A0912A020B
:10192000B0912B02ED0130E020E01097A1F420816E
:101930003181820F931F20912802309129022817AC
:10194000390709F061C0F0932902E0932802DF9182
:10195000CF910895EA01CE17DF07E8F54A815B8150
:101960009E0141155105B1F7E901FB83EA834991D5
:101970005991C40FD51FEC17FD0761F48081918147
:101980000296840F951FE901998388838281938150
:101990009B838A83F0E0E0E012968D919C911397EF
:1019A0000097B9F52D913C911197CD010296820FC8
:1019B000931F20912802309129022817390739F600
:1019C000309751F510922B0210922A02B0932902FF
:1019D000A0932802BCCFD383C28340815181840F5E
:1019E000951FC817D90761F44E5F5F4F88819981B1
:1019F000480F591F518340838A819B81938382833F
:101A00002115310509F0B0CFF0932B02E0932A02A3
:101A10009ECFFD01DC01C0CF13821282D7CFB0E090
:101A2000A0E0E5E1FDE00C94790B8C01009751F406
:101A3000CB010E94EA0B8C01C801CDB7DEB7E0E113
:101A40000C94950BFC01E60FF71F9C012250310905
:101A5000E217F30708F49DC0D901CD91DC911197ED
:101A6000C617D70798F0C530D10530F3CE010497DB
:101A70008617970708F3C61BD70B2297C193D193FC
:101A80006D937C93CF010E94860CD6CF5B01AC1A7C
:101A9000BD0A4C018C0E9D1EA0912A02B0912B0212
:101AA000512C412CF12CE12C109731F5809128021A
:101AB000909129028815990509F05CC046165706D1
:101AC00008F058C08091000190910101009741F405
:101AD0008DB79EB74091040150910501841B950B71
:101AE000E817F90708F055C0F0932902E09328029F
:101AF000F90171836083A0CF8D919C91119712960B
:101B00006C90129713967C901397A815B90559F508
:101B10006C0142E0C40ED11CCA14DB0420F1AC01FC
:101B20004A195B09DA011296159780F06282738276
:101B300051834083D9016D937C93E114F10471F0DA
:101B4000D7011396FC93EE93129776CF22968C0FC3
:101B50009D1FF90191838083F301EFCFF0932B0256
:101B6000E0932A0269CF4816590608F42C017D013A
:101B7000D3019ACFCB010E94EA0B7C01009749F078
:101B8000AE01B8010E94CC0DC8010E94860C8701ED
:101B900053CF10E000E050CFFB01DC0102C0019008
:101BA0000D9241505040D8F70895FB01DC0101909F
:0C1BB0000D920020E1F70895F894FFCF9B
:101BBC0000002C028000000000008102D8010E02FF
:101BCC00CE023F021D023102000000008F04D8013A
:101BDC00EF02EE024D65617375726520332050681B
:101BEC0061736500414320566F6C746167657300C7
:101BFC0053616C61682055642044696E00476974B8
:101C0C004875623A204034797562316B000D0A00D8
:0A1C1C00523D00593D00423D00001A
:00000001FF
